:020000040800F2
:1000000000200020C94300081944000819440008D2
:1000100000000000000000000000000000000000E0
:10002000000000000000000000000000194400086B
:10003000000000000000000019440008B73200086A
:100040001944000800000000194400081944000881
:1000500019440008793300088933000899330008EF
:100060000000000019440008194400081944000861
:1000700019440008D52F0008ED2F000800000000EB
:10008000F52F000800000000000000000D300008FF
:1000900000000000253000083D3000081944000829
:1000A0001944000819440008194400084D3D00088F
:0800B000653D0008000000009E
:1000B8000023C25C0133002AFBD1581E70470000A0
:1000C80002B4714649084900095C49008E4402BCE3
:1000D8007047C046002243088B4274D303098B4201
:1000E8005FD3030A8B4244D3030B8B4228D3030C00
:1000F8008B420DD3FF22090212BA030C8B4202D3A2
:100108001212090265D0030B8B4219D300E0090AC9
:10011800C30B8B4201D3CB03C01A5241830B8B42D2
:1001280001D38B03C01A5241430B8B4201D34B03BB
:10013800C01A5241030B8B4201D30B03C01A524120
:10014800C30A8B4201D3CB02C01A5241830A8B42A5
:1001580001D38B02C01A5241430A8B4201D34B028E
:10016800C01A5241030A8B4201D30B02C01A5241F2
:10017800CDD2C3098B4201D3CB01C01A52418309A6
:100188008B4201D38B01C01A524143098B4201D3E0
:100198004B01C01A524103098B4201D30B01C01A0B
:1001A8005241C3088B4201D3CB00C01A5241830885
:1001B8008B4201D38B00C01A524143088B4201D3B2
:1001C8004B00C01A5241411A00D201465241104612
:1001D8007047FFE701B5002000F006F802BDC046F1
:1001E8000029F7D076E770477047C04610B5064C2F
:1001F8002378002B07D1054B002B02D0044800E0E0
:1002080000BF0123237010BDA400002000000000DF
:10021800E0490008044B10B5002B03D003490448FB
:1002280000E000BF10BDC04600000000A80000208C
:10023800E0490008E12110B5074C062220004902D8
:1002480003F0EEFF2000054904F06CF801211120AD
:1002580004F054F910BDC04628020020F8490008EF
:10026800FF2110B50E4C11202368C91A04F0E6F8D6
:100278000C4A2368116800290CD11433952B04DC2F
:100288002360642004F0D6F910BD96232360953BC3
:100298001360F6E7143B002BF2DC00232360F7E73A
:1002A800C4000020C00000207047000070B5104B4B
:1002B80005001978002901D1012070BDFA208000BD
:1002C800FFF708FF0B4C01002068FFF703FF00F061
:1002D80081F8041EF0D1032DEED802000120290078
:1002E800404200F031F8044B20001D60E5E7C046AD
:1002F8000000002040000020040000208023084A5D
:100308005B00116810B50B4300201360FFF7CEFFA8
:10031800041E03D1FFF7C8FF200010BD0124FBE72E
:1003280000200240034A044B11681B785B181360D5
:100338007047C046C800002000000020014B186824
:100348007047C046C800002010B5FF2403220B00E8
:1003580021000240D20091409B012340C9439340B1
:1003680000280ADBC0240B4A800880008018A400FB
:1003780002590A401343035110BD0F221040083898
:10038800054A800880008018C26911401943C1617C
:10039800F2E7C04600E100E000ED00E0002805DBE0
:1003A8001F2318401E3B8340014A13607047C04614
:1003B80000E100E0002809DB1F2318401E3B8340B2
:1003C800034AD367BFF34F8FBFF36F8F7047C046A1
:1003D80004E100E08022431E5204012093420DD222
:1003E800C021074A07485360036A09061B021B0A13
:1003F8000B43036200200723906013607047C046D8
:1004080010E000E000ED00E0002807DB1F23C02219
:1004180018401E3B8340024952008B507047C0462B
:1004280000E100E0704710B5FFF7FCFF10BD704712
:1004380010B5041E01D1012010BD437FDAB2002B94
:1004480002D10277FFF7F3FF022363772379002BAA
:100458001CD118212368124A5A619A688A439A6003
:1004680062792368002A19D1013A60211A619A68D1
:1004780000208A4361690A4380219A609A688A4306
:10048800A1690A439A6001236377D5E72000E268EF
:10049800A16800F007F80028E2D0CCE72269E4E779
:1004A800B71DC10430B5012504001E2328002942C8
:1004B80002D130BD013B21D30800D8402842F9D0F1
:1004C800102A17D0102A07D8002A0AD00120082A93
:1004D800EFD10F2BEDD804E00120182AE9D1062B23
:1004E800E7D820684161182183688B4313438360F0
:1004F8000020DEE70120072BF3D9DAE70120102AD4
:10050800E0D1D6E7F0B5002808D0841DE37F411D6F
:10051800022B05D00423C3630023CB770120F0BD51
:100528000E250268466C1368AB4313603368104DA0
:100538002B403360012316689E431660026C1B3300
:100548001A401B3B93400B4E77683B437360C26C69
:10055800836C5A60036D002B05D01A682A401A6014
:10056800436D826D5A6001230020E377C877D6E790
:10057800FFFEFFFF00000240F8B5811DCB7F022B74
:1005880003D00423C3630120F8BD0E2402681C278E
:100598001368456CA3431360012314689C431460DB
:1005A8002A68104C22402A60026C0F4D3A40934052
:1005B8006E6833436B60C26C836C5A60036D002BAA
:1005C80005D01A6822401A60436D826D5A60012373
:1005D8000022CB77431DDA77836B934200D098478C
:1005E8000020D1E7FFFEFFFF0000024070B5084D74
:1005F8000400EB68184202D0E86002F0B1FE2B69F3
:10060800234203D020002C6102F0AEFE70BDC0462C
:100618000018024010B5114C1149236802000B4024
:1006280003432360802300209B009A420ED10D4B88
:100638000D49186806235843FFF74CFD8022431CD8
:10064800D200616908001040114200D110BD002B92
:1006580001D0013BF5E70320F8E7C04600700040F1
:10066800FFF9FFFF4000002040420F00F0B50400F2
:1006780085B0002802D1012005B0F0BD0368DB0772
:1006880010D423689B075CD423681B0700D5C1E0FE
:1006980023685B0700D5F2E0E369002B00D079E11D
:1006A8000020E9E73822AF4DAB681340EA68102B09
:1006B80009D1D3439B0708D12B689B03E1D5636815
:1006C800002BDED1D7E7082BF6D0802263685202D0
:1006D800934211D12A6813432B60FFF72FFE80271E
:1006E8000600BF022B683B42CBD1FFF727FE801BD9
:1006F8006428F7D90320BFE7A021C9028B4208D19B
:1007080080232968DB020B432B602B681A432A607D
:10071800E3E72A6894490A402A602A6893490A400C
:100728002A60002BD9D1FFF709FE80270600BF02F7
:100738002B683B42A5D0FFF701FE801B6428F7D940
:10074800D8E73822874DAB681340EA68102B28D1C8
:1007580003210A40022A26D12A68520503D5E268F5
:10076800002A00D187E7696862698148120201405E
:100778000A436A60002B0CD12B687E4A7E491340DD
:10078800226913432B602B687C4A9B045B0FDA4079
:100798000A607B4B1868FFF789FD002800D173E7D2
:1007A80069E7002BD8D0E368002B20D02B68714A6A
:1007B800802713402269FF0013432B6080232A6897
:1007C8005B0013432B60FFF7B9FD06002B683B4223
:1007D80007D06A68636966491B020A4013436B6065
:1007E80052E7FFF7ABFD801B0228EFD982E72B68A1
:1007F800644A802713402B60FFF7A0FD0600FF0026
:100808002B683B4200D13FE7FFF798FD801B022889
:10081800F6D96FE73822534DAB681340182B08D12F
:100828002B6E9B0700D433E7A369002B00D02FE77A
:1008380021E7A2690123002A10D02A6E0227134358
:100848002B66FFF77BFD06002B6E3B4200D01FE7AF
:10085800FFF774FD801B0228F6D94BE72A6E0227A2
:100868009A432A66FFF76AFD06002B6E3B4200D1C9
:100878000EE7FFF763FD801B0228F6D93AE7382216
:10088800384DAB681340202B08D1EB6D9B0700D483
:1008980002E7A368002B00D0FEE6ECE680220021E8
:1008A800EB6B52050091134208D1EB6B1343EB63DA
:1008B800EB6B13400393039B012300938027324E75
:1008C8007F0033683B4215D0A368012B22D1EA6D23
:1008D8001343EB65FFF732FD02270600EB6D3B4241
:1008E80038D0009B012B00D0D6E6EB6B274A13408B
:1008F800EB63D1E633683B433360FFF71FFD01909C
:1009080033683B42E0D1FFF719FD019BC01A02286A
:10091800F6D9EFE6EA6D052B05D1013B1343EB65EC
:10092800EA6D0123D4E701218A43EA65EA6D0331C0
:100938008A43EA65002BCDD1FFF700FD02270600A8
:10094800EB6D3B42CDD0FFF7F9FC114B801B984271
:10095800F6D9CFE6FFF7F2FC0D4B801B9842BDD9C4
:10096800C8E6C04600100240FFFFFEFFFFFFFBFF86
:10097800FF80FFFFFFC7FFFF400000200024F400B6
:1009880004000020FFFEFFFF00700040FFFFFFEFA4
:100998008813000038213F4DAA680A40102A51D018
:1009A8003D4A022B38D12B68802713402B60FFF774
:1009B800C5FC0600BF042B683B4227D1616A236A45
:1009C800EA680B43354980260A401343E26AB604B5
:1009D8001343226B1343A26A12021343EB60802372
:1009E8002A685B0413432B608023EA685B05134382
:1009F800EB60FFF7A3FC04002B68334200D04FE6FE
:100A0800FFF79CFC001B0228F6D973E6FFF796FC5B
:100A1800801B0228CFD96DE62B68802613402B60F7
:100A2800FFF78CFC0400B6042B68334204D1EB6852
:100A38001B4A1340EB6033E6FFF780FC001B0228DB
:100A4800F2D957E6012B00D115E60322E868216A9E
:100A580002408A4200D00EE67022616A02408A4251
:100A680000D008E6FE21A26AC901014012029142A3
:100A780000D000E6F822E16A920302408A4200D0E0
:100A8800F9E5236B400F4007C01A431E9841C0B2D6
:100A9800F2E5C04600100240FFFFFFFE8C80C11F38
:100AA800FCFFFEEF382370B51D4CA2681A4205D131
:100AB80023681C489B045B0FD84070BDA2681A408D
:100AC800082A27D0A2681A40102A17D1E368E168DB
:100AD800DB43E5684906490F6F322D0A013115409D
:100AE8009B0709D11048FFF7F5FAE1686843490FF9
:100AF8000131FFF7EFFAE0E70A48F4E7A2681A4085
:100B0800202A09D0A26800201340182BD5D1FA203A
:100B1800C001D2E70448D0E780200002CDE7C046F4
:100B2800001002400024F40000127A00F7B5040017
:100B38000D00002801D10120FEBD0727484E33686B
:100B48003B408B422AD3226893073BD4D20748D430
:100B5800072733683B40AB420AD93368BB432B4372
:100B68003360FFF7EBFB019033683B40AB4268D141
:100B780023683C4D5B076CD4FFF794FFAB683A4998
:100B88001B051B0F9B005B581F210B40D840374AA1
:100B9800374B10601868FFF789FBCDE73368BB4314
:100BA8000B433360FFF7CAFB019033683B40AB420D
:100BB800C9D0FFF7C3FB019BC01A2E4B9842F4D94A
:100BC8000320B9E72749530704D5E0238868DB01E8
:100BD80003438B608B6828480340A06803438B60FD
:100BE800B4E760681F4F032829D8FFF769FA200285
:100BF8001C243B689B039ED50722BB689343034391
:100C0800BB60FFF79BFB01903823BA681A40636802
:100C1800DB009A429CD0FFF791FB019BC01A154B51
:100C28009842F1D9CCE73B689B01E5D483E73B6860
:100C38005B05E1D47FE73B6E9B07DDD47BE7FB6D6B
:100C4800FAE7FFF77BFB019BC01A0A4B98428BD946
:100C5800B6E7AB68094A1340E2681343AB608BE719
:100C68000020024000100240A84A0008400000206E
:100C78000400002088130000FFF0FFFFFF8FFFFF34
:100C8800064B07499B68074A5B045B0F9B005B5850
:100C98001F2110680B40D8407047C0460010024022
:100CA800884A000840000020072230B5F025094B8B
:100CB80002609C682D01144044609C682C4084604C
:100CC800E0249B68E4012340C360034B1B68134086
:100CD8000B6030BD001002400020024070B50124B6
:100CE800036A026AA24302624468124A856915408F
:100CF8000A681543022293438A6813430E4A9042B6
:100D080005D00E4A904202D00D4A90420BD10822DB
:100D18009343CA688E69134304229343094A2240C5
:100D28004C69344314434A684460856142630362F2
:100D380070BDC0468CFFFEFF002C014000440140FE
:100D480000480140FFFCFFFF70B5174A056A036AB7
:100D5800134003624268154BC4691C400B681C436E
:100D6800134B1D408B681B022B43124DA8420ED11A
:100D7800114D1D40CB681B022B43104D2B40104DCD
:100D88008E6915404A69324312012A4305E00D4D28
:100D9800A842F4D00C4DA842F1D042604A68C46120
:100DA800C263036270BDC046FFFEFFFF8CFFFEFFFB
:100DB800FFFDFFFF002C0140FFF7FFFFFFFBFFFFD8
:100DC800FFCFFFFF004401400048014030B5124A00
:100DD800046A036A114D134003624368C2692A40DA
:100DE8000D682D0215430E4A14408A6812032243E7
:100DF8000C4CA04205D00C4CA04202D00B4CA04297
:100E080004D10B4C1C404B699B01234343604B6846
:100E1800C5610364026230BDFFEFFFFFFF8CFFFE78
:100E2800FFDFFFFF002C0140004401400048014063
:100E3800FFBFFFFF70B5066A104C036A104A2340D3
:100E480003624368456D15400A6815430D4A16400C
:100E58008A68120432430C4EB04205D00B4EB042A1
:100E680002D00B4EB04203D11C404B691B022343F6
:100E780043604B6845658365026270BDFFFFFEFFF6
:100E88008FFFFEFFFFFFFDFF002C014000440140E3
:100E98000048014030B5124A046A036A114D1340F4
:100EA80003624368426D2A400D682D0215430E4ABD
:100EB80014408A68120522430C4CA04205D00C4C01
:100EC800A04202D00B4CA04204D10B4C1C404B69F1
:100ED8009B02234343604B684565C365026230BD8E
:100EE800FFFFEFFFFF8FFFFEFFFFDFFF002C01403A
:100EF8000044014000480140FFFFFBFF01000300E0
:100F0800012010B53D310C78E2B2844215D10018A9
:100F180008701B680A498B4202D00A498B420DD1DE
:100F28009A6809490A40062A06D007398A4203D036
:100F3800012219680A431A60002010BD1968F9E7F0
:100F4800002C01400004004007000100020030B5F9
:100F580002243C32157803002000012D08D0180027
:100F68003D3004701B685961012303700020107024
:100F780030BD7047704700000222036870B5DD6815
:100F88001E69040016420DD015420BD0053A1A61AD
:100F9800043202779B699B0700D17CE002F0B7F826
:100FA8000023237704231E4212D01D4210D00522AD
:100FB800236852421A61073222779A69C0239B003C
:100FC80020001A4200D16CE002F0A1F80023237738
:100FD80008231E420FD01D420DD009222368524219
:100FE8001A610D322277DB6920009B075FD002F07F
:100FF8008EF80023237710231E4211D01D420FD0F4
:101008001122236852421A6119322277DA69C02301
:101018009B0020001A4250D002F079F80023237771
:1010280001231E4208D01D4206D0022223685242E4
:1010380020001A6102F040F882239B011E4207D06B
:101048002B0605D52368204A20001A6100F0B7FB5B
:10105800F30507D52B0605D523681C4A20001A611D
:1010680000F0AEFB40231E4208D01D4206D04122AC
:101078002368524220001A61FFF77CFF20231E429A
:1010880008D01D4206D021222368524220001A614E
:1010980000F094FB70BD02F036F82000FFF769FFFE
:1010A8007EE702F030F82000FFF763FF8EE702F0DA
:1010B8002AF82000FFF75DFF9BE702F024F82000E4
:1010C800FFF757FFAAE7C0467FDFFFFFFFFEFFFFDE
:1010D80010B51B4C0368A0420AD01A4A904207D0A8
:1010E800194A904209D1194A1A40CB6813430AE0B9
:1010F800702293434A681343F5E7154A9042F2D0A9
:10110800144A9042EFD0802293434A691343036004
:101118008B68C3620B688362A04205D00C4B98426F
:1011280002D00C4B984201D10B6903630122426142
:101138000369134202D003699343036110BDC0469B
:10114800002C01400004004000200040FFFCFFFF8D
:10115800004401400048014070B504000120002C03
:1011680023D025003D352B78DAB2002B05D123009A
:101178003C3320001A7002F0B1FB02232B70206868
:10118800211DFFF7A5FF220001230020483213701C
:1011980047340A3A137053709370D37013715371B4
:1011A8009371D371137223702B7070BD102270B5B8
:1011B800056A036A164C93430362426883692340B5
:1011C8000C6824021C4320239D438B681B012B437E
:1011D800104DA8420FD18025AB431E00CB68403D7F
:1011E8001B013343AB430C4D8E6915404A693243AA
:1011F80092002A4305E0094DA842F4D0084DA842C0
:10120800F1D042604A6884618263036270BDC0465F
:10121800FF8CFFFE002C0140FFF3FFFF004401405C
:101228000048014070B504003C34257803000220D2
:10123800012D0BD00C2A1FD009D8042A14D0082A53
:1012480016D0002A0BD001200023237070BD102A6D
:1012580016D0142AF7D11868FFF71CFE02E01868A8
:10126800FFF73CFD0020EFE71868FFF79FFFF9E75D
:101278001868FFF769FDF5E71868FFF7A7FDF1E7BC
:101288001868FFF7D7FDEDE7F8B507003C371500FC
:101298003A7803000C000220012A0CD0013838707B
:1012A8000C2D51D008D8042D2DD0082D3CD0002D60
:1012B80017D000233B70F8BD102D58D0142DF8D14D
:1012C8001D682800FFF7E6FD80236A6D1B011343A4
:1012D8006B656B6D2E4A13406B6523696A6D1B0243
:1012E80053E01D682800FFF7F9FC0823AA69134397
:1012F8000422AB61AB699343AB61AB6922691343C9
:10130800AB610020D5E71D682800FFF74FFF802359
:10131800AA691B011343AB61AB691D4A1340AB615A
:101328002369AA691B02EAE71E683000FFF70CFD73
:101338000422F3691D43F561F3699343F361F3698B
:1013480022691343F361DCE71D682800FFF73EFDBF
:101358008023EA691B011343EB61EB690C4A1340D4
:10136800EB612369EA691B021343EB61C9E71D6856
:101378002800FFF75FFD08236A6D134304226B659D
:101388006B6D93436B656B6D226913436B65B8E7AF
:10139800FFFBFFFFF0B50126046A1500026A0D4F36
:1013A800B24302628269B84210D00B4FB8420DD0E6
:1013B8003243F025AA431B010F352B4013430A2261
:1013C80094431140214383610162F0BD0326B24377
:1013D8002A43EEE7002C0140000400400300F7B563
:1013E8003C3301900C001978022001290CD00138F7
:1013F8001870082A67D008D8002A2DD0042A3DD0B2
:101408000023019D3C352B70FEBD0C2AF8D1019BB1
:10141800404D1B6822681E6A1F6A60682F40E16899
:101428001F62DF693C4D00022F4038433B4F0907DC
:101438003840090C01433A4812030640A020000234
:1014480002403243D9611A62DA6936490A40DA61E0
:10145800A268D96912025AE0019B62681E68216875
:10146800E3683000FFF796FF0C22B3699343B3613A
:10147800B369A2681343B3610020C1E71025019B3B
:1014880022681B6860681E6A1F6AE168AF431F62B2
:101498009F69214D00022F403843204F09073840EB
:1014A800090C0143A020120186430240324399618E
:1014B8001A629A691B490A409A61A26899691202DC
:1014C8000A439A61D8E7019B174D1B6822681E6A78
:1014D8001F6A60682F40E1681F62DF690535FF35C4
:1014E800AF433843F0270901B8430F373940014368
:1014F8000E48D9613040A0260C2112023601324034
:1015080002431A62DA698A43DA61DA69A1680A432E
:10151800DA61B1E7FFEFFFFFFFFCFFFFFF0FFFFFFF
:10152800FF5FFFFFFFF3FFFFFFFEFFFFFFF5FFFF7A
:101538001F2310B5012419408C408A40036AA34335
:101548000362036A1A43026210BD0000020010B56C
:1015580008291CD006D800290BD0042914D0130060
:10156800433308E00C2915D01029F8D10300423381
:1015780001E003003E331B78013B581E8341DBB278
:101588000120002B09D010BD03003F33F3E703000F
:101598004033F0E703004133EDE70223082930D058
:1015A80006D800290BD0042928D01000433008E0C1
:1015B8000C2929D01029F8D11000423001E0100080
:1015C8003E300370146801222000FFF7B1FF164A6D
:1015D800944205D0154B9C4202D0154B9C4216D123
:1015E8008023616C1B020B436364944212D1A3688D
:1015F800104A1340062B12D10020C4E710003F30D8
:10160800DFE710004030DCE710004130D9E70A4B33
:101618009C42ECD00123226813432360ECE780222C
:1016280052029342F6D1E7E7002C01400044014002
:1016380000480140070001000004004010B5FFF712
:1016480085FF10BD030010B5082927D006D800294A
:101658000BD004291FD01A00433224E00C2920D0D3
:101668001029F8D1020042321DE002003E32107803
:101678000632C0B21278D2B201284BD1012A3AD12F
:10168800013208293BD013D8002918D0042933D0B7
:101698001800433038E002003F32E8E702004032E9
:1016A800E5E70200413210781A00C0B24732E1E79C
:1016B8000C2927D01029EBD11800423024E018005B
:1016C8003E30027082711C6801222000FFF730FF53
:1016D800114B9C4202D0114B9C4207D1A368104A7F
:1016E8001340062B06D0073A934203D00123226801
:1016F80013432360002010BD18003F30E1E71800B5
:101708004030DEE71800413002701A0002204732EC
:101718001070D8E70120EEE7002C014000040040DB
:10172800070001000F2310B5042419408C408A409B
:10173800036AA3430362036A1A43026210BD0000EE
:101748000300020010B5002924D144320120147886
:1017580084421ED1022010701C6804222000FFF76A
:10176800E1FF8023626C1B02134363640E4B9C42AF
:1017780002D00E4B9C4207D1A3680D4A1340062B9A
:1017880006D0073A934203D001232268134323600B
:10179800002010BD042901D14532D7E7082901D11D
:1017A8004632D3E74732D1E7002C0140000400401D
:1017B8000700010010B5FFF7C3FF10BD7047704761
:1017C8007047000030B5EFF31084012282F31088CF
:1017D8000168134D0B682B400B6084F31088EFF3FE
:1017E800108182F3108802680E4C9368234093603E
:1017F80081F31088C36E012B0AD1EFF3108183F3B4
:101808001088102402681368A343136081F31088BA
:10181800030020228C331A600023C366436730BD5F
:10182800DFFEFFFFFEFFFFEF30B5EFF3108401226C
:1018380082F31088802501680B68AB430B6084F342
:101848001088EFF3108182F3108840230268106833
:101858000343136081F3108830BD030088331B688D
:1018680010B5212B06D1020056321388002B02D165
:10187800FFF7DAFF10BD036D01681C7801338C6235
:1018880003651388013B9BB21380F3E70300883399
:101898001B6810B5212B06D1010056310B88002B8F
:1018A80002D1FFF7C1FF10BD026D04681388023230
:1018B800DB05DB0DA36202650B88013B9BB20B8045
:1018C800F1E70000030088331B6870B5212B21D194
:1018D8000300010080246A331B885631002B19D07D
:1018E8000A88002A17D1EFF31084013282F3108896
:1018F8000168114D8B682B408B6084F31088EFF3DF
:10190800108182F310884023026810680343136033
:1019180081F3108870BD0568EA69224208D0026D1B
:1019280016780132AE6202650A88013A92B20A80DC
:10193800013B9BB2D2E7C046FFFF7FFF030088331D
:101948001B6870B5212B21D10300010080246A3364
:101958001B885631002B19D00A88002A17D1EFF3BB
:101968001084013282F310880168124D8B682B4075
:101978008B6084F31088EFF3108182F31088402382
:10198800026810680343136081F3108870BD06680D
:10199800F26922420AD0056D2A880235D205D20D95
:1019A800B26205650A88013A92B20A80013B9BB28D
:1019B800D0E7C046FFFF7FFF7047000030B5050045
:1019C80088352C6803000220202C38D101380029E2
:1019D80035D0002A33D080209C684001844205D14C
:1019E8001869002802D10130014228D1196519006F
:1019F80054310A804A801A00002190321160212255
:101A080080212A608022586E92054901904217D1A0
:101A1800154A8C4204D11969144A002900D0124A87
:101A28009A67EFF31081012282F310881A688023E5
:101A380090681B040343936081F31088002030BD35
:101A48000B4A8C4204D119690A4A002900D0084A75
:101A58009A67EFF31081012282F310881A688023B5
:101A6800106803431360E7E7CD180008451900081C
:101A78006318000895180008806A0023020010B552
:101A88005E321380083A138002F03AF910BD7047AD
:101A9800F7B50168C14DCB6904000A6888682B4214
:101AA80010D120252B4200D19BE0802676051540D9
:101AB8000640354300D194E0636F2000002B00D02E
:101AC80085E085E0B64D05400095B64D009E154071
:101AD800354300D185E0250001269035334205D0F5
:101AE800D70503D50E622F683E432E600226334287
:101AF8000CD0C7070AD527000E6290373E680197B9
:101B0800B446042667463E43019F3E60042633429E
:101B18000CD0C7070AD527000E6290373E68019798
:101B2800B446022667463E43019F3E600826B446F7
:101B3800334209D02027009E1740374304D0664619
:101B48000E622F683E432E6080263601334206D04F
:101B5800570104D50E6220212E6831432960296877
:101B6800002935D020210B420AD080235B05114083
:101B78000340194304D0636F002B01D0200098471D
:101B880022682B684027966828223E401340200090
:101B98001E4322D0FFF716FE23689B683B4218D0ED
:101BA800EFF31081012383F31088250004CD936897
:101BB800BB43936081F31088E86F002809D07A4B03
:101BC8008363FEF7D9FC002802D0E86F836B98473F
:101BD800F7BD200002F094F8FAE702F091F82E60C1
:101BE800F6E7E56E012D00D09FE01026334200D1C4
:101BF8009BE0324200D198E00E62896840230A00D7
:101C08001A40194257D0211DCA6F1068426892B213
:101C1800002ADDD027005C373F889742D8D92700B3
:101C28005E373A8002682020844610400090604663
:101C3800024232D1EFF3108785F3108820685B4E9B
:101C480002683240026087F31088EFF3108785F34B
:101C5800108820688268AA43826087F31088EFF3AF
:101C6800108785F31088206882689A43826087F31A
:101C78001088230062468C331A60009BE366EFF3FA
:101C8800108085F3108822680F351368AB43136002
:101C980080F31088C86FFEF735FC02232200236703
:101CA80023005C325E331B881188C91A89B2200070
:101CB800FFF7EDFE8CE721005E310B8809889BB2A7
:101CC800002900D184E721005C310988C91A89B24A
:101CD800002900D17CE7EFF3108785F3108820688E
:101CE800334E03683340036087F31088EFF310879F
:101CF80085F3108820682F4E83683340836087F30C
:101D08001088230020208C331860E2666267EFF3A6
:101D1800108085F31088102522681368AB43136080
:101D280080F3108802232367C1E780256D032B42C7
:101D380006D0460204D520000D6202F01DF847E7E0
:101D480080210B4207D080252D04114028400143F3
:101D580001D0A36FB1E640210B4216D00A4214D03D
:101D6800EFF31080012383F31088226813688B43F4
:101D7800136080F310882300202288331A60002320
:101D88002000A36701F0B5FF22E7190214D551001E
:101D980012D5200000F018FE1AE7C0460F08000010
:101DA8000100001020010004811A0008FFFEFFFF57
:101DB800DFFEFFFFFEFFFFEFDB0100D408E7002A8C
:101DC80000DB05E7200000F0FEFD01E701008C3193
:101DD8000A68F8B50368222A5AD1040060345B6A9D
:101DE8002488826D234013700200836D5E320133B4
:101DF80083651388013B9BB2138013889CB2002B28
:101E080042D1EFF31086013383F310880568234F1E
:101E18002A683A402A6086F31088EFF3108683F325
:101E280010880568AA689A43AA6086F31088202259
:101E38000A60026804675268446712020AD5EFF321
:101E4800108183F310880268154C136823401360CF
:101E580081F31088C36E012B17D10022C266EFF3FD
:101E6800108483F3108801680F330A689A430A6064
:101E780084F310880268D169194200D01362030004
:101E88005C331988FFF703FEF8BD01F02BFFFBE771
:101E9800082299690A439A61F6E7C046DFFEFFFF08
:101EA800FFFFFFFB02008C321168F8B50368222996
:101EB80059D104006034596A2488836D21401980FF
:101EC8000100023383655E310B88013B9BB20B80B6
:101ED8000B889CB2002B42D1EFF31086013383F3B9
:101EE80010880568224F29683940296086F31088D0
:101EF800EFF3108683F310880568A9689943A960F1
:101F080086F31088202111600268046752684467CC
:101F180012020AD5EFF3108183F310880268154C7A
:101F280013682340136081F31088C36E012B17D107
:101F38000022C266EFF3108483F3108801680F3320
:101F48000A689A430A6084F310880268D1691942C2
:101F580000D0136203005C331988FFF798FDF8BDC1
:101F680001F0C0FEFBE7082299690A439A61F6E787
:101F7800DFFEFFFFFFFFFFFBF0B5036885B0DD69FB
:101F88001A68040003929A68019202008C3212685F
:101F9800222A00D0C8E0030068331B88002B08D130
:101FA80023005E331B889AB2002B00D09CE005B05A
:101FB800F0BD030060331B88029320231D42EFD03D
:101FC8002600236802995B6AA26D0B401370A36D0B
:101FD8005E360133A36533882268013B9BB23380A8
:101FE8000723D5691D422FD0063B1D4208D003990F
:101FF800C90505D5210013629031086803430B60B9
:1020080002231D4209D00199C90706D52100136290
:1020180090310868DB1803430B6004231D4209D084
:102028000199C90706D51362220090321168023B54
:102038000B431360270090373B68002B04D0200027
:1020480001F05EFE00233B60338899B2002BB4D1C7
:10205800EFF31086013383F310882068354F026848
:102068003A40026086F31088EFF3108683F31088F5
:102078002068314F82683A40826086F310882200D7
:1020880020208C3210602268216752686167120232
:102098000AD5EFF3108183F3108822682748136864
:1020A8000340136081F31088E36E012B18D10022DE
:1020B800E266EFF3108083F3108821680F330A6813
:1020C8009A430A6080F310882268D169194200D0C7
:1020D800136223005C3320001988FFF7D8FC6CE7F3
:1020E800200001F0FFFD68E7230068331B88934256
:1020F80000D85CE7EFF31080012282F31088216892
:102108000F4D8B682B408B6080F310880D4B6367F5
:10211800EFF3108182F310882023226810680343AC
:10212800136081F3108842E7082299690A439A618B
:102138003DE7C046FFFEFFFFFEFFFFEFFFFFFFFB8F
:10214800FFFFFFEFD51D0008F0B5036885B0DD6916
:102158001A68040003929A68019202008C3212688D
:10216800222A00D0C6E0030068331B88002B08D160
:1021780023005E331B889AB2002B00D09AE005B08A
:10218800F0BD030060331B88029320231D42EFD06B
:10219800260023680298596AA26D01401180023214
:1021A800A2655E363288013A92B232800722DD6932
:1021B80015422FD0063A154208D00399C90505D50E
:1021C80021001A629031086802430A60022215420F
:1021D80009D00199C90706D521001A62903108680B
:1021E800921802430A600422154209D00199C907CE
:1021F80006D51A6222000223903211680B4313603D
:10220800270090373B68002B04D0200001F078FDB0
:1022180000233B60338899B2002BB6D1EFF31086C8
:10222800013383F310882068354F02683A40026012
:1022380086F31088EFF3108683F310882068314FF7
:1022480082683A40826086F31088220020208C320F
:102258001060226821675268616712020AD5EFF39D
:10226800108183F31088226827481368034013609D
:1022780081F31088E36E012B18D10022E266EFF398
:10228800108083F3108821680F330A689A430A6024
:1022980080F310882268D169194200D013622300A4
:1022A8005C3320001988FFF7F2FB6EE7200001F08D
:1022B80019FD6AE7230068331B88934200D85EE75C
:1022C800EFF31080012282F3108821680F4D8B688C
:1022D8002B408B6080F310880D4B6367EFF3108100
:1022E80082F310882023226810680343136081F367
:1022F800108844E7082299690A439A613FE7C04673
:10230800FFFEFFFFFEFFFFEFFFFFFFFBFFFFFFEFFB
:10231800AD1E00080200F0B58432117803000220D7
:1023280001291FD01C00012188342230117020603F
:10233800EFF3108681F310880C271D682868B843CE
:10234800286086F31088EFF3108081F310881968ED
:1023580008230D682B430B6080F31088202300208E
:1023680023601070F0BD0200F0B5843211780300CC
:10237800022001291FD01C0001218834223011704D
:102388002060EFF3108681F310880C271D682868F9
:10239800B843286086F31088EFF3108081F3108823
:1023A800196804230D682B430B6080F310882023E1
:1023B800002023601070F0BD030088338C301B6848
:1023C800006818437047000070B504002569A168CB
:1023D800036829436569C26929431868494D11434F
:1023E80028400143196059684748256A0140E06858
:1023F80001435960A16998682943444D2840014325
:102408000F209960D96A8143606A0143D9624049C3
:102418008B4215D103213F4B5B6D0B40013B022BD7
:1024280060D83D49C85C80231B029A422FD10828F6
:1024380056D8FDF745FE5B550E550B5555550F0003
:1024480036495B18591E8B411801ECE7FEF72AFB49
:102458004EE0334A616A334B49001000C95AFDF710
:1024680039FE656840006B08C0182900FDF732FE88
:1024780002002D4B103A9A4232D80F23020000076F
:102488009A4393B2400F22680343D36032E008288E
:1024980026D8FDF715FE1A2505251F252525220016
:1024A8001F48626A1F4B5200D15AFDF713FE656838
:1024B8006B08C0182900FDF70DFE02001A4B103AF0
:1024C8009A420DD82368D86014E0FEF7D9FB00289B
:1024D80010D0E6E7FEF7E6FAF9E780200002E0E729
:1024E800012008E080231B029A42EED1FEF7C8FBC8
:1024F800021EAFD100200D4BA36600236367A367BC
:1025080070BDC046F369FFCFFFCFFFFFFFF4FF1197
:1025180000380140001002401F4A000800BCFFBFFD
:102528000024F400224A0008EFFF00000100010027
:10253800836A30B51A0706D50168284C4A682240D4
:10254800846B22434A60DA0706D50168244C4A683E
:102558002240C46A22434A609A0706D50168214C82
:102568004A682240046B22434A605A0706D501682C
:102578001D4C4A682240446B22434A60DA0606D55D
:1025880001681A4C8A682240C46B22438A609A0602
:1025980006D50168164C8A682240046C22438A607A
:1025A8005A0610D50168134D4A68446C2A402243E4
:1025B8004A6080225203944205D14A680E4C224058
:1025C800846C22434A601B0606D502680B4953688F
:1025D8000B40C16C0B43536030BDC046FF7FFFFF0B
:1025E800FFFFFDFFFFFFFEFFFFFFFBFFFFEFFFFF0A
:1025F800FFDFFFFFFFFFEFFFFFFF9FFFFFFFF7FF7B
:10260800F7B504000D00170000932268D3692B402A
:102618005B1B59424B41BB4201D0002026E0089B7E
:102628000133F3D0FDF78AFE009BC01A089B98423D
:102638002DD8002B2BD023681A685207E5D52A001D
:102648004021403A8A43E0D0DA6908261100314037
:10265800019132420BD020001E62FFF7B3F823002D
:1026680090331E600023012084342370FEBD802235
:10267800D96912011142C8D01A622000FFF7A2F8E6
:102688002300202290331A60019B84342370032096
:10269800ECE70000030073B50026040090331E60C9
:1026A800FDF74CFE236805001B681B071FD580211A
:1026B800284B32000093890303002000FFF7A0FF96
:1026C800B04214D0EFF31081012383F310888020E7
:1026D800226813688343136081F310882300202243
:1026E80088331A60032000238434237076BD2600C3
:1026F80023688C361B685B0723D58021154B002285
:10270800009320002B00C903FFF77AFF002818D098
:10271800EFF31080012282F3108821680E4D0B68B8
:102728002B400B6080F31088EFF3108082F3108841
:1027380021688B6893438B6080F310882023336073
:10274800D0E723002022002088331A603260E06638
:102758002067C8E7FFFFFF01DFFEFFFF70B5041E1B
:1027680001D1012070BD050088352B68002B04D1EC
:10277800020084321370FFF71FF924230121226815
:102788002B6013688B431360A36A002B02D02000D0
:10279800FFF7CEFE2000FFF717FE0128E1D02368DF
:1027A80007495A6820000A402A215A609A688A43D1
:1027B8009A60012219680A431A60FFF76BFFD1E794
:1027C800FFB7FFFF70B5041E01D1012070BD0500E1
:1027D80088352B68002B04D1020084321370FFF770
:1027E800EBF82423012122682B6013688B431360C4
:1027F800A36A002B02D02000FFF79AFE2000FFF703
:10280800E3FD0128E1D0236809495A6820000A40FD
:1028180022215A609A688A439A60082299680A4372
:102828009A60012219680A431A60FFF733FFCDE75F
:10283800FFB7FFFF03005C3370B5816580241A8001
:102848005A800023816843676401A1423CD103692F
:1028580059424B411B02FF33010060310B800300DA
:102868000021903319602231043B1960EFF3108482
:10287800012383F3108801688D682B438B6084F3F0
:10288800108880258021466E84680369AD0549015A
:10289800AE423FD1050068352D8895423AD88C4222
:1028A80033D1002B22D12C4B4367EFF31081012346
:1028B80083F31088802302685B0590680343936064
:1028C80081F31088002070BD002905D10169FF231C
:1028D8000029C1D0803BBFE780246405A142BBD159
:1028E80001697F230029B7D0403BB5E71B4B4367FD
:1028F800EFF31081012383F310880268FF33146813
:102908002343136081F31088CFE7144A4267002BF2
:10291800CBD0EDE78C421AD1002B0AD1104B43677C
:10292800EFF31081012383F3108802681F331068C6
:102938000AE00C4B4367EFF31081012383F31088FF
:10294800026820331068FF3303431360B8E7054A71
:102958004267002BE4D0EEE751210008811F0008F0
:10296800AD1E0008D51D000803008C3370B51C6827
:102978000223202C25D1013B002922D0002A20D077
:10298800802384685B019C4205D10369002B02D136
:102998000133194215D10023C36603685B681B0223
:1029A8000CD5EFF31085012383F310888023046886
:1029B800DB0426683343236085F31088FFF73AFF6A
:1029C8000023180070BD70477047836810B5040075
:1029D800002B05D00322010098470023A360E36081
:1029E80010BD836810B50400002B02D0032201003B
:1029F8009847200010BD4B1E032B00D9FEE7880026
:102A08000438704700B50139425C102013000340B8
:102A1800024204D0022917D80C4B4800C35AD207E7
:102A280008D5032910D80800FDF74AFB0206080B51
:102A380001221343180000BD1022FAE78022520039
:102A4800F7E780225201F4E7FEE7C046424A000851
:102A58000139032900D9FEE7014B585C7047C0468D
:102A68003E4A00080139032900D9FEE7014B585CAA
:102A78007047C0463A4A0008F7B504000E00FFF751
:102A8800BAFF310005002000FFF7E2FF330164338D
:102A9800E31801939B68002B05D0C24323691A6190
:102AA800DA680243DA60771E7B00E31898880B28FF
:102AB80017D8FDF705FB4E171717060617174848CE
:102AC8004828E35DDB0604D5200029001030FEF716
:102AD80071FEE35DDB0704D5200029001030FEF706
:102AE800ADFDF7BDE35DDB0604D5200029001030FD
:102AF800FEF726FEE35DDB07F3D520002900103042
:102B0800FEF724FDEDE7200029001030FEF79AFDBE
:102B180031002000FFF7A6FF010006002000FFF7A4
:102B280071FF25692B6A1843019B28629B68002B5B
:102B3800D7D031002000FFF78BFFC3432B61EB6830
:102B48001843E860CDE7200029001030FEF77AFD31
:102B5800C7E723691B68DB07C3D420001030FEF7E2
:102B6800CDF9BEE770B50121040002256B00E35AD8
:102B7800002B04D0691E2000FFF77EFF00210135DD
:102B8800062DF3D1E36E002B07D0022223695242AF
:102B98001A61D86803320243DA60002907D0236932
:102BA8001B68DB0703D420001030FEF7A7F970BDBF
:102BB800F0B591B0009316AB04001F780291019212
:102BC800FFF719FF504B051E099323691AD15B6B58
:102BD80001220A9300230692019A09A905AE0593DA
:102BE8008B600B614B61CB608B61B360F7600B2A24
:102BF80018D81000FDF764FA3910383E40484A4C9E
:102C0800504E5759042801D19B6BE1E7082801D1A0
:102C1800DB6BDDE71B6CDBE710232A000993E01868
:102C2800FEF700FB029E019A013E7300E3189A80AA
:102C3800002A17D0009B013314D0009800F078FECA
:102C4800A8425FD1314D0098290000F0E7FC290027
:102C5800009800F025FD0122C00200D50F32A35DC7
:102C68001343A35511B0F0BD202320002A00099377
:102C78001030D5E73023F8E7602320002A00103011
:102C88000993FEF701FBCDE77023F6E75023ECE745
:102C98004023EAE70223059320002A003100103080
:102CA800FEF79CFBBEE70A23F5E71849009800F0F9
:102CB800F7FC802302005B031A40184200D0FEE7AD
:102CC8002300012710331800310005922A000393CE
:102CD8007760FEF783FB02992000FFF7C3FE431ECF
:102CE800E25C010017430B22E7545B00E3189A806B
:102CF8000223200005937360FFF77DFE3100020078
:102D08000398CDE7FEE7C046FFFF0000C04B000870
:102D1800013903000020032902D849005B1898886C
:102D2800704710B501211030FEF710F910BD036986
:102D3800186801231840704770B505000C00FFF7AC
:102D4800F6FF00280FD10126E36833420CD0E36870
:102D58002800B343E360FFF7E4FF02235B422361EB
:102D6800E3681E43E66070BD2800FFF7DAFFFAE764
:102D78000C4A030090420ED00B4A90420DD00B4AE9
:102D880090420CD00A4A0320934205D0094A0130E8
:102D9800934201D0FEE7002070470120FCE70220A3
:102DA800FAE7C046002C0140000400400020004023
:102DB800004401400048014070B504000069FFF775
:102DC800D7FF05002000103000F0F8FC0022084B67
:102DD800AD00EA5026002500E260B4356436B542FD
:102DE80004D0103D2800FFF7FCFDF8E7200070BD77
:102DF800CC000020F8B5040008000D00FFF7B8FF6C
:102E08002369002B00D0FEE721001A4A80000C310C
:102E1800815022002C322561260013702032236352
:102E28006363A363E36323646364A36413705370ED
:102E380003221036300025002700E460E26523668F
:102E480000F068FC6435B43728001035FFF7BDFD85
:102E5800BD42F9D10023084A23606360A36063611F
:102E6800A3612362636280333000E261A362FEF7EC
:102E780073F9F8BDCC000020FFFF000030B587B023
:102E880002AC050010220021200001F0BDFC002347
:102E9800200001A90193FDF707FF286900F043FD11
:102EA800012815D1059CFDF7EBFEC023DB019C42F0
:102EB80006D007D88022074BD2012340934205D180
:102EC800400003E0E023DB019C42F9D007B030BDAD
:102ED800FEE7C046FFEFFFFF70B505000C00012AB2
:102EE8000CD0022A18D023005A1E93412969E41AEB
:102EF8002800CC62EC61FFF71FFF70BDFFF7BEFF33
:102F08000849FDF7E7F860432B69010C9962013124
:102F1800FDF7E0F80400E6E7FFF7B0FF2100FDF752
:102F2800D9F8F1E740420F00F7B5060014001D007C
:102F3800FFF761FD336907009A6A01320192822D19
:102F480029D021D8102D11D8002D2AD131691D4A38
:102F5800CB6A934203D10132944200D11C00002F66
:102F680026D14C633000FFF7E7FEF7BD812DEDD188
:102F78003000FFF783FF1449FDF7ACF8604301996F
:102F8800FDF7A8F80400E1E7832DDFD1D86A6421B2
:102F980001306043F4E73000FFF770FF01996143A7
:102FA800EEE70121A940D86A013901306043E7E71B
:102FB800042F01D18C63D5E7082F01D1CC63D1E769
:102FC8000C64CFE7FFFF000040420F00044B10B530
:102FD8001868002802D00430FDF7CEFF10BDC046A7
:102FE800CC00002010B5FFF7F1FF10BD044B10B561
:102FF8005868002802D00430FDF7BEFF10BDC04657
:10300800CC000020044B10B59868002802D004308A
:10301800FDF7B2FF10BDC046CC000020044B10B530
:10302800D868002802D00430FDF7A6FF10BDC046BE
:10303800CC000020044B10B51869002802D00430D9
:10304800FDF79AFF10BDC046CC00002010B50C2239
:103058000021040001F0D8FB00232000E36010BD2C
:10306800F8B50500070004000E006435B4372800E1
:103078001035FFF7EBFFBD42F9D1002331002000E6
:103088002361FFF7B7FE2000F8BD836810B5002B59
:1030980001D101F09DFCC368984710BD10B5002808
:1030A80000D1FEE700F034FB0068C36E002B02D0AD
:1030B8006430FFF7EAFF10BD10B5FFF7EFFF10BD52
:1030C800030010B5002800D1FEE7007F013807286B
:1030D80012D8FCF7F5FF041611121111111401246E
:1030E800180000F015FB2401006864340019836897
:1030F800002B01D0FFF7C9FF10BD0324F0E704241B
:10310800EEE70224ECE710B5FFF7DAFF10BD10B5C3
:10311800FFF7D6FF10BD10B501F0B0FA10BD10B51D
:1031280001F0B6FA10BD00007FB5002304280FD8BF
:103138001B4B5A6BFCF7C4FF030F18212A0001210F
:103148000A435A635B6B0B400193019BA023DB0589
:10315800180007B000BD02210A435A635B6B0B409D
:103168000293029B0F4BF3E704210A435A635B6BFC
:103178000B400393039B0C4BEAE708210A435A636D
:103188005B6B0B400493049B084BE1E720210A4347
:103198005A635B6B0B400593059B054BD8E7C0460C
:1031A800001002400004005000080050000C0050BD
:1031B80000140050F0B5234E87B0039131000593F9
:1031C8000492040000F044FAFFF7D2FD1E4F850078
:1031D800EB59002B0ED1B420FFF79DFF3100029070
:1031E800200000F035FA01000298FFF739FFEB598B
:1031F800029A1A60310020001F6800F051FA050396
:10320800ED0E29003800FFF783FD0600042807D0DB
:10321800002304220093290023003800FFF7C8FC8C
:10322800022238000399FFF757FE29003800059B52
:10323800049AFFF779FE042E02D03800FFF792FCBB
:1032480007B0F0BDC04B0008CC000020F7B5134B09
:1032580006001900019300F0FBF9FFF789FD104FF4
:103268008500EB59002B0DD1B420FFF754FF0199CD
:103278000400300000F0ECF901002000FFF7F0FE38
:10328800EB591C601C68002C06D02000FFF794FD49
:10329800B4212000FFF743FFF7BDC046C04B00082C
:1032A800CC00002010B5FDF749F810BD704710B5E7
:1032B800FDF738F8FDF7B7F8FFF7F8FF10BD7047CE
:1032C80080210E4B4905DA6B84B00A43DA63DA6B66
:1032D8000A4001210192019A1A6C0A431A641A6C75
:1032E8000A4080210292029A9A6B49010A439A6322
:1032F8009B6B0B400393039B04B070470010024084
:1033080010B5FFF7DDFFFCF7F9FFFFF7D8FF00F076
:1033180065FD0248FDF78CF810BDC0461C00002072
:1033280010B50C220021040001F06EFA0023E360BE
:1033380010BD0000002310B501280BD114225A43F8
:10334800064B101DC0188168002902D09B181B6904
:10335800984710BD01334008DBB2EDE7E0000020DC
:1033680010B5FFF7E7FF10BD10B5FFF7E3FF10BD7D
:1033780010B50120FDF73AF90220FDF737F910BD25
:1033880010B50420FDF732F90820FDF72FF910BD1C
:1033980070B50C241025A8B2013CFDF727F96D0083
:1033A800002CF8D170BD0000F8B505252E4F2F4C24
:1033B80038002570FFF7B4FF2D4E25753000FFF754
:1033C800AFFF2300013528332A481D70FFF7A8FFF7
:1033D800230029483C331D70FFF7A2FF2300013565
:1033E800503326481D706037FFF79AFF24483D7018
:1033F8006036FFF795FF23483570FFF791FF2300EC
:1034080021488C331D70FFF78BFF23001F48A03322
:103418001D70FFF785FF23001D48B4331D70FFF7AB
:103428007FFF23001B48C8331D70FFF779FF230077
:103438001948DC331D70FFF773FF23002600F033B3
:1034480016481D70FF36FFF76BFF15487571FFF7BB
:1034580067FF14487576FFF763FF962312485B00F1
:10346800E554FFF75DFFF8BDE4000020E000002010
:10347800F80000200C010020200100203401002069
:10348800480100205C010020700100208401002018
:1034980098010020AC010020C0010020D4010020C8
:1034A800E8010020FC0100201002002010B5044CA7
:1034B800143C201DFFF795FA024B9C42F8D110BD31
:1034C80020020020E0000020431C04D100207047A7
:1034D800834204D00C310B685A1CF9D1F6E701205D
:1034E800F5E70000F7B505000C00431C00D1FEE726
:1034F8000F23484A0340C0B29B0009389F5803284D
:103508000ED8FCF7DDFD02263035C0232A009B01CA
:103518001A409A4204D108233F4A11680B431360AA
:10352800072628062640000F0196FFF7FDFD826852
:10353800030094463A00032066467A435043C14349
:10354800304398600198032852D8FCF7B9FD5254CB
:103558002D15C0232A009B011A409A42E0D12E4A19
:1035680010231168DAE708212B4A13688B43D6E742
:10357800294A10211368F9E7032050431D68019E6A
:103588000D402843013E1860012E04D8200734D589
:10359800586838435860A406A40F012C30D0022C78
:1035A80033D0DA680A402EE06004400E84467F2853
:1035B80001D10220E1E72D070DD50F25586A060035
:1035C800380A404340434543AE433500664670439E
:1035D80005435D62EDE7186A0F25060010005043A9
:1035E8004543AE4335006646704305431D62E0E738
:1035F800FEE70020C1E70120BFE75868B843C9E7E4
:10360800D86801400A43DA60F7BDD8685200014023
:10361800F8E7C046484A00080000014010B5431CBE
:1036280007D110BD834203D18968FFF75BFFF8E734
:103638000C310B685A1CF5D1FEE70B685A1C01D1F6
:10364800002002E0834201D1486870470C31F4E75A
:10365800002310B5421C02D0FFF7EFFF030018004B
:1036680010BD4B68002B02D10120404202E083428A
:1036780001D1086870470C31F3E710B5002802D073
:10368800FFF7EFFF10BD01204042FBE70300086889
:10369800421C02D0984201D1886870470C31F6E785
:1036A80010B5431C01D0FFF7F1FF10BD030008005F
:1036B8008B4205D0002B03D0424250414042184073
:1036C80070470000A0220D4BD20019680C480A432D
:1036D80000211A6099601A6802401A60802252011B
:1036E800DA601A68074802401A60074A99611A6244
:1036F8008022064B12059A607047C04600100240AF
:10370800FFFFF6FEFFFFFBFF3B03000000ED00E0BC
:10371800043870470368234A86B093420BD180214E
:10372800214B09011A6C0A431A641B6C0B40019364
:10373800019B06B070471D4A934209D102211A4BDA
:10374800DA6B0A43DA63DB6B0B400293029BF0E708
:10375800174A93420AD18021134B09021A6C0A4373
:103768001A641B6C0B400393039BE2E7114A9342D4
:103778000AD180210C4B89021A6C0A431A641B6C0B
:103788000B400493049BD4E70B4A9342D1D1802188
:10379800054BC9021A6C0A431A641B6C0B4005934B
:1037A800059BC6E7002C01400010024000040040C1
:1037B8000020004000440140004801400368134ACB
:1037C800934205D1124A1349136C0B40136407E066
:1037D800114A934205D102210D4AD36B8B43D3631F
:1037E80070470E4A934203D1094A0D49136CECE71E
:1037F8000C4A934203D1064A0B49136CE5E70B4A7E
:103808009342EDD1024A0A49136CDEE7002C0140CD
:1038180000100240FFF7FFFF0004004000200040B6
:10382800FF7FFFFF00440140FFFFFDFF004801400C
:10383800FFFFFBFF0300421C13D00E4A904213D037
:1038480007D80D4A904211D00C4A1320934207D052
:10385800FEE70B4A90420BD00A4A16209342F7D152
:1038680070470E204042FBE70D20F9E71020F7E7EC
:103878001520F5E7002C014000040040002000401E
:1038880000440140004801400300421C13D00E4A86
:10389800904213D007D80D4A904211D00C4A1320F9
:1038A800934207D0FEE70B4A90420BD00A4A1620F3
:1038B8009342F7D170470E204042FBE70E20F9E70C
:1038C8001020F7E71520F5E7002C01400004004020
:1038D800002000400044014000480140F8B50400C1
:1038E800FFF718FF2068FFF7A5FF226DE16CFCF7D2
:1038F8002BFD2068FFF79EFFFCF750FD2768380076
:10390800FFF7C2FF05003800FFF794FF854209D092
:103918002800226DE16CFCF717FD2068FFF7B4FF63
:10392800FCF73CFDF8BD0130431E9841C0B270471A
:1039380010B50649FFF7B4FE0003C00E431E032B63
:1039480000D9FEE78000043810BDC046C04B00080F
:10395800F0B5070004008BB007937E4BA03738689A
:1039680005912600190006920493FFF771FE7A4D1F
:10397800A436290001903068FFF76AFE2300A833B7
:10398800764900901868FFF763FE2300AC3374494A
:1039980002901868FFF75CFE290003903868FFF76B
:1039A80057FE049905003068FFF752FE019B070097
:1039B800002B02D1002D00D19DE03368013305D0E2
:1039C800009B002B02D1002F00D194E02300A833E4
:1039D8001B68013303D0029B002B00D18BE023002E
:1039E800AC331B68013303D0039B002B00D182E06A
:1039F80000990198FFF75AFE2060002804D1390089
:103A08002800FFF753FE20600299FFF74FFE039945
:103A18002060FFF74BFE206000286CD0514B984285
:103A280000D06AE08022504BD201196B4F481143F5
:103A38001963196B01401963196C114319641B6CE4
:103A480013401B220893089B2300B0331A80019B64
:103A5800002B69D02300A03318683E49FFF7DEFD2C
:103A6800009B002B05D02300A4333B491868FFF7BF
:103A7800D5FD002300250193029BAB4207D023000C
:103A8800A83336491868FFF7C9FD0135FF35039B90
:103A9800002B08D080239B001D432300AC33304902
:103AA8001868FFF7BBFD2200B1321278304B261D93
:103AB8009200D650236800226360059BB020A36063
:103AC800069BE561E360109B22622361079B6262AB
:103AD80063610C23A361043BE362019B0121E3635F
:103AE8002056FCF731FC009B3000002B2FD1002F13
:103AF8002DD1FEF767FE0BB0F0BD1E4B9842A6D144
:103B08008022194B9202D96A1B481143D962D96A9B
:103B18000140D962D96B1143D963DB6B13408E2204
:103B28000993099B52008FE7002DA2D02300A033F0
:103B380009491868FFF772FD002F05D02300A43348
:103B480004491868FFF76AFD80231B0292E7FEF715
:103B580005FED0E7844B0008484B0008184B0008C6
:103B6800E84A00080038014000100240FFBFFFFF8C
:103B78002002002000440040FFFFFDFF13B500288D
:103B880003D0049C0094FFF7E3FE13BD10B5B130D9
:103B98000278064B9200D058FEF70EFC22231840FC
:103BA800223843425841C0B210BDC046200200200E
:103BB80010B5B1300278064B9200D058FEF7FCFBE6
:103BC80021231840213843425841C0B210BDC04695
:103BD8002002002070B504000E00002802D1012048
:103BE800404270BDFFF7D2FF051EF8D12100B23167
:103BF8000B78B13433702078034B80000122C05811
:103C0800FEF7B2FE2800ECE72002002070B50400A1
:103C18000D0000281AD0FFF7B9FF002816D123009D
:103C280098331D6025000020B0352856FCF7C2FBEC
:103C38002100B1342078064B80000122C058B231EF
:103C4800FEF792FE00202856FCF7A8FB70BDC04680
:103C58002002002070B50400150000281BD00300C6
:103C6800060000209C331960B0363056FCF7A2FBE2
:103C780023002100C233B8311B880968B134207889
:103C8800C918054B8000C058AAB2FDF797FE00205E
:103C98003056FCF783FB70BD2002002010B50028C9
:103CA8000BD00300A4331B68013306D1B13002786E
:103CB800024B9200D058FEF72DFB10BD20020020C9
:103CC80010B500280BD00300A4331B68013306D1BC
:103CD800B1300278024B9200D058FEF744FB10BD79
:103CE80020020020030010B594331B68043898475D
:103CF80010BD030010B598331B680438984710BDF1
:103D08000122036810B5D96904000438114201D0B2
:103D18001A620BE00222D9691142F9D10422D96949
:103D28001142F5D10822D9691142F1D1FFF72EFFCE
:103D3800002805D1210001222000AE31FEF714FE33
:103D480010BD000010B51B20FCF75EFB024B186885
:103D5800FDF79EFE10BDC046200200201C2010B5B5
:103D6800FCF752FB034B5868002801D0FDF790FE82
:103D780010BDC04620020020010010B50122AE315E
:103D8800FEF7F2FD10BD000003000A4910B50868EF
:103D9800C318EFF30882934205D90C220120064B81
:103DA80040421A6010BD054A054C121B9342F4D2DA
:103DB8000B60F7E744000020E0040020002000200A
:103DC80000040000FEE7000016220120014B4042DB
:103DD8001A607047E00400200120704730B593B0A6
:103DE8003422002105A801AC00F00EFD10220021AC
:103DF800200000F009FD80208000FCF70BFC8023E8
:103E08005B000893002309930E9308330F938023D4
:103E18009B0210938023022540229B0505A8059547
:103E28000A920C950D951193FCF720FC002800D000
:103E3800FEE70723A060E060290020000193656089
:103E4800FCF774FE002800D0FEE713B030BDAA23AB
:103E5800A8215B00C35A4900405A4033181A3F232F
:103E680018407047AA235B00C25A043BC35A9A42BF
:103E780003D0FC30C26CD05C704701204042FBE7A5
:103E8800A923AB225B005200C35C805AC0B28342B4
:103E980002D3C01A3F307047C01A0138FBE713B588
:103EA8006B460268D9710733546819000122A0478C
:103EB80016BD37B56B46DD1D29000400FFF78AFEE5
:103EC800002810D122003F21C032138801330B4053
:103ED8002100BC3109888B4205D0B4341188206890
:103EE8002D784554138037BD0300010070B5C233E7
:103EF800C4311A880C6812193F2422401A80020023
:103F0800BE3212881D880024AA4217D01D8840326C
:103F18001C880B4B521BA4B21A4004D54023013A0B
:103F28005B421A43013240231B1B9A4200D91A00F4
:103F38000A6001240349FFF78DFE6442200070BD2A
:103F48003F000080F13E0008F7B5036800919B68C8
:103F5800019204009847A92340275B00E35A050013
:103F6800FF1A012323742300FC33DB6B01330AD1CE
:103F7800AE235B00E25C002A05D000222000E25458
:103F88009430FFF78BFE236820009B689847002831
:103F9800F9D0019EBE4227D8AE4225D8A9232700D2
:103FA8005B00E35AFC37386D9A19C018402A34D898
:103FB8003200009900F068FC3500A9225200A35A8B
:103FC8003F219B1926000B4094363000A352FFF77F
:103FD800EFFD002806D1FC342A0030001549E565BC
:103FE800FFF738FE0198FEBDBD4200D93D002368A9
:103FF8002A005B68009920009847009B20005B1905
:1040080000932368761B9B689847A9235B00E75AAF
:10401800133BFF3B0500DF1BBCE74025ED1A2A00D8
:10402800009900F031FC009B386D721B591900F0A3
:104038002BFCC2E7F13E000810B5914201D10121E5
:1040480049420400FC342364029BA26363640300B6
:10405800AA221133E36400235200E1638352020071
:1040680051322265AB2252006365835210BDF7B509
:10407800037C04000D00002B16D0FCF75FF9A9277C
:10408800AB2601907F007600E25BA35B9A420BD0DF
:10409800002DFAD0FCF752F9019BC01A8542F3D8DB
:1040A800A923A25B5B00E252F7BD10B50021FFF720
:1040B800DEFF10BDCBB210B51B2B09D8E0220F4C88
:1040C8009B00D2000A4019591143FC30C16310BD4E
:1040D800C0220A40C02A0ED1CF2B0CD83F23084C4F
:1040E8000B409B001B59E024044A9B009B58E400AA
:1040F80021401943E9E701214942E6E72C4D000830
:10410800EC4C0008CBB210B51B2B09D8E0220F4CA1
:104118009B00D2000A4019591143FC30816310BD3D
:10412800C0220A40C02A0ED1CF2B0CD83F23084CFE
:104138000B409B001B59E024044A9B009B58E40059
:1041480021401943E9E701214942E6E72C4D0008DF
:10415800EC4C00080023F0B585B04360FA239B00BF
:1041680083601E4B050003600123FC355B42EB6353
:104178001B4B04000E000392984218D1C321200063
:10418800FFF798FFC2212000FFF7BCFF0123039A25
:104198005B42012A00D1EB63009301232000AA6B44
:1041A800E96B5B42FFF748FF200005B0F0BD0D4A00
:1041B8000D4F92680D4B92003900D058FFF748FA1E
:1041C8008642DBD00A493000FFF757FA3900E86326
:1041D8003000FFF752FAA863D8E7C046B84D000888
:1041E80028020020EC4C0008844B00082C4D0008E5
:1041F800484B00080300FC33DB6B10B504000133A7
:104208000DD10368DB689847AE235B00E25C002AA7
:1042180005D120000132E2549430FFF751FD10BD62
:104228000300FC3373B559665E23FF33C254573B12
:10423800FF3B1340023BDBB204000026042B01D8ED
:104248001348C65C30231340302B19D1C0230136E4
:10425800DB00073E022E19D8250012070D48D20FA1
:104268009435B6005203009232582800FFF786FCB6
:104278002000FFF7BFFF28000749FFF7C7FC73BD01
:1042880000239006E5D580230136E1E7FEE7C04626
:10429800A84D00089C4D0008BB3E000810B504005E
:1042A800FFF7A8FFAA23A8225B005200E15AA35AED
:1042B800994208D02100FC31C96CC85C3F21013308
:1042C8000B40A35210BD01204042FBE710B500226D
:1042D80002480349FFF73EFF10BDC04628020020F0
:1042E8000044004070B505000C00081E07D0FBF71D
:1042F800DFFE2B680200210028005B68984770BD2C
:1043080010B50249FFF7EEFF10BDC0461C4A000871
:1043180070B50400FFF7E6FF05002000FFF7F0FF87
:10432800401970BD10B5FFF7F3FF10BD10B50400BC
:1043380000F07CF9E060236820005B69984700285A
:1043480008DA00F073F9E368C01AA3689842F2D358
:104358000120404210BDF8B506000F0015000024EA
:10436800AC4201D12000F8BD3000FFF7DFFF431C4D
:10437800F8D038550134F3E7F7B50F0016001D00E3
:104388001C1E01900BD000240198FFF7CFFF431C9F
:1043980005D0B84203D030550134A542F4D12000ED
:1043A800FEBD10B500F064F910BD10B500E000BF07
:1043B800FBF740FFFBF754FF00F04AF9FAE700006B
:1043C8000D488546FFF77EF90C480D490D4A002334
:1043D80002E0D458C4500433C4188C42F9D30A4AB2
:1043E8000A4C002301E013600432A242FBD300F020
:1043F80025FAFFF7DAFFFEE7002000200000002082
:10440800A4000020F44D0008A4000020E8040020C7
:10441800FEE7914208D008D90123891A8B409842B7
:1044280009D30130C840013870470028FCD001305A
:10443800521A9040F7E70020F6E70000F7B5C3B23C
:104448000500274A01911B2B0BD9C0220240C02A24
:1044580033D1CF2B31D83F23224903409B00204A38
:104468005B58E0249B009B58E4002C401C43631CD1
:1044780023D020001C49FFF727F81C4F061E1DD02B
:104488000F2123090B401A489B001D5821402E007C
:104498000122CE40164202D18A402A431A50154BB7
:1044A80039681D6801982A00FFF7B3FF1249020016
:1044B80009682000EBB2FEF77DFEF7BD0121280058
:1044C80000F01CF8396808220198FFF7A2FF3100B4
:1044D8007F2800D90121280000F06CF8EDE7C046DC
:1044E8002C4D0008EC4C0008C04B00085000002080
:1044F8008C0300204C00002048000020F7B5C3B210
:10450800040001911B2B29D8E02226499B005C5806
:10451800D20002401443631C37D00F2625093540CA
:10452800214FAD00EB592640F340DB070DD52000A5
:104538001E49FEF7C9FF002802D02000FEF786FEBC
:104548000122B2407B5993437B51019B052B27D80D
:104558001800FBF7B5FD16211B1D1F23C0220240C2
:10456800C02A12D1CF2B10D83F23114903409B00FA
:104578005B58E0210B4A9B009B58C9000C401C4328
:10458800C9E700212000FEF7ADFFF7BD1021F9E7CC
:104598002021F7E70321F5E70121F3E70921F1E7F6
:1045A800FEE7C0462C4D00088C030020C04B0008D5
:1045B800EC4C0008C3B210B51B2B19D8E022174CDD
:1045C8009B00D200024018591043431C0FD0030629
:1045D80000221B0F042B02D8114A9B009A580F2463
:1045E800104B20408000C358002914D0936110BD9F
:1045F800C0220240C02AFAD1CF2BF8D83F230A4C58
:1046080003409B001B59E024044A9B009B58E4008C
:1046180020401843D9E79362E9E7C0462C4D0008CB
:1046280008000020484A0008EC4C000810B5FEF7C6
:1046380039FE10BD70B5041E09D0FEF733FE050023
:1046480000F01AF8FEF72EFE401BA042F8D370BD0A
:10465800054B10B5002B06D00448FFF7F8FB0028DF
:1046680001D000E000BF10BD0000000028020020BB
:1046780010B5FEF745FE10BD7047000010B5034B9E
:104688000100186800F030F810BDC0465400002042
:1046980010B5034B0100186800F000F910BDC046C2
:1046A8005400002070B50F4E0D0031680400002939
:1046B80002D100F0B1F830602900200000F0ACF819
:1046C800431C03D101256D42280070BD0323C51C7E
:1046D8009D43A842F8D0291A200000F09DF8013027
:1046E800F2D1EFE7A0030020F7B50322CB1C9343D8
:1046F800083305001F000C2B34D20C27B94233D8DD
:10470800280000F071F8374E33681C00002C2FD1B8
:1047180039002800FFF7C6FF0400431C5FD1346846
:104728000094009B002B4AD1002C52D0236828000B
:10473800E3180099019300F06FF8019B834248D178
:1047480023682800FF1A3900FFF7ACFF013040D07A
:104758002368DB19236033685A68002A33D1009B29
:10476800336019E0002BC9DA0C232B600020FEBD52
:104778002168C91B20D40B290AD9E2192760A34252
:1047880004D1326063681160536005E05A60F9E74C
:104798006268A3420ED13260280000F02DF8200094
:1047A80007220B30231D9043C21A9842DFD01B1AF0
:1047B800A350DCE75A60EFE723006468A6E7009C93
:1047C80063680093ADE71A005B68A342FBD100233E
:1047D800DAE70C2328002B6000F00EF8C6E7076024
:1047E800DAE7C046A403002010B5024800F04AF8F2
:1047F80010BDC046E404002010B5024800F043F89C
:1048080010BDC046E404002003008218934200D182
:10481800704719700133F9E7002370B5064D04009D
:1048280008002B60FFF7B0FA431C03D12B68002B5C
:1048380000D0236070BDC046E004002070B500269B
:104848000C4C0D4D641BA410A64209D1002600F0A3
:10485800C3F80A4C0A4D641BA410A64205D170BDCA
:10486800B300EB5898470136EEE7B300EB5898478A
:104878000136F2E7DC4D0008DC4D0008EC4D00087D
:10488800DC4D000870477047002310B59A4200D1EC
:1048980010BDCC5CC4540133F8E7000070B50500C6
:1048A8000C1E10D0043C2368002B00DAE418280002
:1048B800FFF79AFF1D4A1368002B05D16360146047
:1048C8002800FFF799FF70BDA34208D92068211876
:1048D8008B42F3D119685B6809182160EEE71A006A
:1048E8005B68002B01D0A342F9D911685018A04287
:1048F8000BD120680918501811608342E0D118685C
:104908005B68411811605360DAE7A04202D90C23B2
:104918002B60D5E7206821188B4203D119685B68A2
:104928000918216063605460CAE7C046A4030020E8
:10493800062010B500F02CF80120FFF743FA70B5F7
:1049480004000D001F2904D91623036001204042EA
:1049580070BDC36B002B04D08A009B181A68002A0C
:1049680008D1200000F030F82A000100200000F0F3
:1049780019F8EDE7012A09D0511C03D11623036069
:104988000120E5E700212800196090470020DFE7B3
:1049980010B5034B01001868FFF7D1FF10BDC046E2
:1049A80054000020002370B5064D040008001100D3
:1049B8002B60FFF709FA431C03D12B68002B00D0AA
:1049C800236070BDE004002010B5FFF705FA10BDA4
:1049D80010B5FFF7ADFF0000F8B5C046F8BC08BC3D
:1049E8009E467047F8B5C046F8BC08BC9E4670475E
:1049F8004B416D6F6420426C61636B5069636F203B
:104A080053544D3332473033302C2048656C6C6F2B
:104A1800203A29000D0A00040208010002000400DF
:104A2800060008000A000C0010002000400080006A
:104A380000010201040302040810040040000004FD
:104A4800010000000200000004000000080000004F
:104A5800100000002000000040000000800000005E
:104A6800000100000002000000040000000800002F
:104A7800001000000020000000400000008000003E
:104A8800000000000000000000000000000000001E
:104A98000100000002000000030000000400000004
:104AA80000000000000000000000000000000000FE
:104AB80000000000000000000000000000000000EE
:104AC80001000000020000000300000004000000D4
:104AD80006000000070000000800000009000000B0
:104AE8000000000000440040120100000B0000001C
:104AF8000038014012010000140000000038014095
:104B080012040000FFFFFFFF00000000000000008B
:104B18000100000000440040120100000C000000E9
:104B28000038014012010000130000000038014065
:104B380012040000FFFFFFFF00000000000000005B
:104B48000300000000440040120100000A30000089
:104B580000380140120100000F000000004400402E
:104B68001201000017000000003801401200000088
:104B7800FFFFFFFF0000000000000000020000002F
:104B880000440040120100000930000000380140D4
:104B9800120100000E000000004400401201000055
:104BA800160000000038014012000000FFFFFFFF60
:104BB8000000000000000000040000000020004089
:104BC800128400000600000000040040128100006A
:104BD80006010000004401401285000007000000A3
:104BE800002C014012821000070100000004004060
:104BF800120101000702000000200040128400009A
:104C0800070300000048014012850000080000006A
:104C1800002C01401282000009300000002C0140E5
:104C2800120201000A300000002C0140128201002B
:104C38000B000000002C01401202020010000000CE
:104C4800002C014012021100100100000004004075
:104C58001281010011000000002C01401282110095
:104C680011010000000400401201020011020000BE
:104C7800002000401280000013000000002C0140BA
:104C8800120101001400000000040040128100001D
:104C98001500000000040040120101001600000089
:104CA800002C01401281010016010000004401405F
:104CB8001282100017000000004801401282100004
:104CC8001800000000440140128200001900000092
:104CD8000048014012820000FFFFFFFF00000000B3
:104CE80000000000000000000100000002000000B9
:104CF800030000000400000005000000060000009A
:104D080007000000090000000A0000000B00000076
:104D18000C0000000E0000000F0000001000000052
:104D28001500000000000000010000000200000063
:104D38000300000004000000050000000600000059
:104D480007000000080000000B0000000C00000035
:104D58000D0000000E0000000F0000001000000011
:104D680011000000120000001300000014000000F1
:104D780015000000160000001700000018000000D1
:104D8800190000002E0000002F000000093000006C
:104D98000A300000000000100000000000100000B1
:104DA80006000700080000000000000000000000E6
:104DB800A73E0008513F0008893E0008B34000089C
:104DC800573E0008A54200086D3E00085F430008F2
:044DD800814300080B
:104DDC00AB4300081D020008B1330008D54200089F
:084DEC00F5010008B5340008D0
:104DF4000100000004000000000000500004005006
:104E040000080050000C0050001400500030024014
:104E1400000000000000000000000000000000008E
:104E2400000000000000000000000000010000007D
:104E34000024F400E8040020E80300000800000057
:104E4400080000005800002000000000A803002013
:104E5400100400207804002000000000000000007E
:104E6400000000000000000000000000000000003E
:104E7400000000000000000000000000000000002E
:104E8400000000000000000000000000000000001E
:044E9400000000001A
:04000005080043C9E3
:00000001FF
